:1000000019C033C032C031C030C02FC099C62DC016
:100010002CC02BC02AC034C728C027C026C025C08A
:1000200024C023C0ACC821C020C01FC01EC01DC03A
:100030001CC01BC011241FBECFEFD4E0DEBFCDBF5C
:1000400012E0A8E0B2E001C01D92A131B107E1F7D2
:1000500012E0A0E0B1E0E4E4F3E102C005900D920B
:10006000A830B107D9F7C5D86BC969C7A0E0B0E01F
:10007000EBE3F0E0FFC8DC012B01FA019C91923028
:1000800008F439C1EB018881823008F433C194301F
:1000900069F4843009F02FC111969C9111978981E0
:1000A000981709F428C1A0E0B1E025C1843009F413
:1000B00021C18230A9F4923009F01DC19A01AD012D
:1000C00088E0EA010990AE01E90109929E018150A0
:1000D000C1F7E201898111969C918923818308C12E
:1000E000923009F407C112962D903C901397EB01C2
:1000F0008A819B811496AD90BD90CD90DC9017972E
:10010000EC80FD800E811F819101281B390BB90104
:1001100037FF04C066277727621B730B60327105B7
:100120000CF061C0121613066CF537014801062E5B
:1001300004C096948794779467940A94D2F721E048
:1001400030E040E050E004C0220F331F441F551F31
:100150006A95D2F721503040404050402E213F2137
:1001600040235123211531054105510521F021E09E
:1001700030E040E050E079018A01E628F7280829BC
:1001800019293CC0232BD1F1260E371E350146011B
:10019000062E04C096948794779467940A94D2F7B5
:1001A00021E030E040E050E004C0220F331F441F44
:1001B000551F6A95D2F721503040404050402A21C7
:1001C0003B214C215D21211531054105510521F0CF
:1001D00021E030E040E050E059016A01A628B7284C
:1001E000C828D9280BC0821593052CF01C01AA241D
:1001F000BB24650103C0EE24FF24870111969C9166
:10020000D20111968C91981709F445C0992339F0C1
:10021000A80197012A193B094C095D0906C0A601EE
:1002200095012E193F09400B510B57FD08C0118253
:100230003382228224833583468357831DC081E025
:1002400081833382228288279927DC01821B930BCA
:10025000A40BB50B84839583A683B7830DC0220FAF
:10026000331F441F551F2483358346835783828160
:1002700093810197938382832481358146815781BD
:10028000DA01C9010197A109B1098F5F9F4FAF4FF3
:10029000BF4328F30BC0918333822282EA0CFB1CFC
:1002A0000C1D1D1DE482F5820683178383E0808385
:1002B000248135814681578157FF1AC0C901AA2779
:1002C00097FDA095BA2F81709070A070B070569570
:1002D000479537952795822B932BA42BB52B848399
:1002E0009583A683B78382819381019693838283CA
:1002F000DF0101C0D201CD01CDB7DEB7E2E1D6C743
:10030000A0E2B0E0E5E8F1E0C1C769837A838B83BE
:100310009C832D833E834F835887E9E0EE2EF12C9A
:10032000EC0EFD1ECE010196B701C7D38E010F5E04
:100330001F4FCE010596B801C0D38A8991E0892765
:100340008A8BC701B801AE01475E5F4F8FDEE0D2F6
:10035000A096E6E0B7C7A0E2B0E0E0EBF1E096C718
:1003600069837A838B839C832D833E834F83588755
:10037000F9E0EF2EF12CEC0EFD1ECE010196B70137
:100380009CD38E010F5E1F4FCE010596B80195D309
:10039000C701B801AE01475E5F4F68DEB9D2A096D3
:1003A000E6E090C7A0E2B0E0E7EDF1E063C7698363
:1003B0007A838B839C832D833E834F835887CE0122
:1003C0000196BE01675F7F4F78D3CE010596BE01CF
:1003D0006F5E7F4F72D39985923088F08989823021
:1003E000C8F0943019F4823051F404C0843029F4F8
:1003F000923081F480E091E0C6C0923049F420E070
:100400009A858A89981321E02A87CE010996BBC074
:10041000823049F420E09A858A89981321E02A8B5A
:10042000CE014196B0C02D843E844F8458886D889B
:100430007E888F88988CEE24FF248701AA24BB2411
:10044000650140E050E060E070E0E0E0F0E0C10114
:1004500081709070892BE9F0E60CF71C081D191DBE
:100460009A01AB012A0D3B1D4C1D5D1D80E090E003
:10047000A0E0B0E0E614F7040805190520F481E0D7
:1004800090E0A0E0B0E0BA01A901480F591F6A1F2F
:100490007B1FAA0CBB1CCC1CDD1C97FE08C081E096
:1004A00090E0A0E0B0E0A82AB92ACA2ADB2A319657
:1004B000E032F10549F0660C771C881C991C5694B3
:1004C000479437942794C3CFFA85EA892B893C89CE
:1004D0008B859C85280F391F2E5F3F4F17C0CA019F
:1004E00081709070892B61F016950795F794E794C9
:1004F00080E090E0A0E0B0E8E82AF92A0A2B1B2B64
:1005000076956795579547952F5F3F4F77FDE7CFD6
:100510000CC0440F551F661F771F17FD4160EE0C7E
:10052000FF1C001F111F21503040403090E0590740
:1005300090E0690790E4790760F32B8F3C8FDB0133
:10054000CA018F779070A070B07080349105A105BA
:10055000B10561F447FD0AC0E114F104010511057C
:1005600029F0405C5F4F6F4F7F4F40781A8EFE1727
:1005700011F081E08A8F4D8F5E8F6F8F78A383E0BB
:10058000898FCE014996C4D1A096E2E18FC6A8E139
:10059000B0E0ECECF2E076C669837A838B839C83CF
:1005A0002D833E834F835887B9E0EB2EF12CEC0E60
:1005B000FD1ECE010196B70180D28E010F5E1F4F46
:1005C000CE010596B80179D22985223008F47EC083
:1005D0003989323010F4B8017CC08A859A8989271C
:1005E0008A87243011F0223031F4231709F06EC0CD
:1005F00060E071E06EC0343039F41D861E861F86BF
:10060000188A1C861B8604C0323021F484E0898756
:10061000B7015FC02B853C858B899C89281B390BD2
:100620003C872B87ED84FE840F851889AD88BE88B2
:10063000CF88D88CEA14FB040C051D0540F4EE0CA1
:10064000FF1C001F111F215030403C872B8720E0EA
:1006500030E040E050E080E090E0A0E0B0E460E016
:1006600070E0EA14FB040C051D0540F0282B392B23
:100670004A2B5B2BEA18FB080C091D09B695A795B8
:1006800097958795EE0CFF1C001F111F6F5F7F4F22
:100690006F31710531F7DA01C9018F779070A07061
:1006A000B07080349105A105B10561F427FD0AC041
:1006B000E114F1040105110529F0205C3F4F4F4F73
:1006C0005F4F20782D873E874F87588BBE01675F2D
:1006D0007F4FCB011DD16896EAE0F0C5A8E1B0E0FC
:1006E000E3E7F3E0D3C569837A838B839C832D830F
:1006F0003E834F83588789E0E82EF12CEC0EFD1ED7
:10070000CE010196B701D9D18E010F5E1F4FCE01E8
:100710000596B801D2D18985823038F08989823036
:1007200020F0C701B80141D201C08FEF6896E6E022
:10073000C9C5A8E1B0E0EEE9F3E0A8C569837A8312
:100740008B839C832D833E834F83588789E0E82EDB
:10075000F12CEC0EFD1ECE010196B701AED18E013B
:100760000F5E1F4FCE010596B801A7D18985823053
:1007700038F08989823020F0C701B80116D201C053
:1007800081E06896E6E09EC5A8E0B0E0E9ECF3E021
:1007900079C57B018C01611571058105910519F4FD
:1007A00082E089835FC083E089838EE1C82ED12CEB
:1007B000DC82CB82ED82FE820F831887C801B701ED
:1007C00058D0FC013197F7FF3BC0222733272E1B5F
:1007D0003F0B57016801022E04C0D694C794B7940A
:1007E000A7940A94D2F740E050E060E070E081E026
:1007F00090E0A0E0B0E004C0880F991FAA1FBB1FC3
:100800002A95D2F70197A109B1098E219F21A02332
:10081000B1230097A105B10521F041E050E060E06F
:1008200070E04A295B296C297D294D835E836F83A3
:1008300078878EE190E08E1B9F0B9C838B8312C088
:10084000309781F00E2E04C0EE0CFF1C001F111F0C
:100850000A94D2F7ED82FE820F831887CE1ADF0A40
:10086000DC82CB821A82CE01019652D02896EAE031
:1008700025C5EF92FF920F931F937B018C0180E0BF
:10088000E81680E0F80681E0080780E0180788F4A1
:100890008FEFE816F1040105110531F028F088E02A
:1008A00090E0A0E0B0E017C080E090E0A0E0B0E011
:1008B00012C080E0E81680E0F80680E0080781E0DA
:1008C000180728F088E190E0A0E0B0E004C080E1E3
:1008D00090E0A0E0B0E020E230E040E050E0281BF3
:1008E000390B4A0B5B0B04C016950795F794E794F8
:1008F0008A95D2F7F701E85FFE4F8081281B310906
:1009000041095109C9011F910F91FF90EF9008957E
:10091000DF92EF92FF920F931F93FC01E480F5802A
:1009200006811781D1808081823048F480E090E098
:10093000A0E1B0E0E82AF92A0A2B1B2BA5C08430DD
:1009400009F49FC0823021F4EE24FF24870105C002
:10095000E114F1040105110519F4E0E0F0E096C09E
:10096000628173819FEF623879070CF05BC022E8E7
:100970003FEF261B370B2A3131052CF020E030E009
:1009800040E050E02AC0B801A701022E04C07695CD
:100990006795579547950A94D2F781E090E0A0E0DB
:1009A000B0E004C0880F991FAA1FBB1F2A95D2F779
:1009B0000197A109B1098E219F21A023B12300979E
:1009C000A105B10521F081E090E0A0E0B0E09A013E
:1009D000AB01282B392B4A2B5B2BDA01C9018F770E
:1009E0009070A070B07080349105A105B10539F404
:1009F00027FF09C0205C3F4F4F4F5F4F04C0215C71
:100A00003F4F4F4F5F4FE0E0F0E02030A0E03A076B
:100A1000A0E04A07A0E45A0710F0E1E0F0E0790115
:100A20008A0127C06038710564F5FB01E158FF4F6A
:100A3000D801C7018F779070A070B0708034910595
:100A4000A105B10539F4E7FE0DC080E490E0A0E017
:100A5000B0E004C08FE390E0A0E0B0E0E80EF91E43
:100A60000A1F1B1F17FF05C016950795F794E794FB
:100A7000319687E016950795F794E7948A95D1F714
:100A800005C0EE24FF248701EFEFF0E06E2F67959D
:100A900066276795902F9F77D794DD24D7948E2F64
:100AA0008695492F462B582F5D29B701CA011F9102
:100AB0000F91FF90EF90DF900895FC01DB014081E2
:100AC00051812281622F6F7770E0221F2227221F1F
:100AD0009381892F880F822B282F30E0991F992727
:100AE000991F11969C93119721153105A9F5411570
:100AF00051056105710511F482E037C082E89FEF6E
:100B000013969C938E9312979A01AB0167E0220F84
:100B1000331F441F551F6A95D1F783E08C930DC096
:100B2000220F331F441F551F12968D919C911397CE
:100B3000019713969C938E931297203080E038078C
:100B400080E0480780E4580758F314962D933D93AE
:100B50004D935C93179708952F3F310579F4411514
:100B600051056105710519F484E08C93089564FFC3
:100B700003C081E08C9312C01C9210C02F573040EC
:100B800013963C932E93129783E08C9387E0440F47
:100B9000551F661F771F8A95D1F7706414964D9381
:100BA0005D936D937C93179708951F93DC01FB0170
:100BB0009C91923008F447C08081823008F443C091
:100BC000943051F411961C91843099F58181682FED
:100BD00070E0611B71093FC0843021F0923031F424
:100BE0008230B9F18181882389F12DC011961C9141
:100BF00011978230F1F081811817D9F412962D9156
:100C00003C911397828193818217930794F0281760
:100C10003907BCF014968D919D910D90BC91A02D3B
:100C20002481358146815781281739074A075B0798
:100C300018F4112341F00AC082179307A407B507DF
:100C400040F4112319F061E070E005C06FEF7FEF11
:100C500002C060E070E0CB011F91089595B121E0E2
:100C600030E002C0220F331F8A95E2F7822F809571
:100C7000892385B98FEF8EBD0DB407FEFDCF3EB53C
:100C80008FEF8EBD0DB407FEFDCF662319F485B13D
:100C9000282B25B92EB5932F80E030E0282B392B57
:100CA000C90108950F931F93DF93CF93CDB7DEB79C
:100CB0006C970FB6F894DEBF0FBECDBF10926F00D9
:100CC0008E010F5F1F4FC80160E070E041E150E00E
:100CD00008D382E061E0C2DF9B8B8A8B82E060E018
:100CE000BDDF9D8B8C8B81E061E0B8DF9F8B8E8BAD
:100CF00081E060E0B3DF998F888F83B18A8F86B1FE
:100D00008B8F89B18C8FF8019E012F5E3C4F8081C3
:100D10008093C6008091C00085FFFCCF7C96E217CF
:100D2000F307A9F782E080936F006C960FB6F894F2
:100D3000DEBF0FBECDBFCF91DF911F910F91089500
:100D40001F920F920FB60F9211242F933F934F9340
:100D50005F936F937F938F939F93AF93BF93EF9323
:100D6000FF9380910802882321F480E190E062E003
:100D7000D9D2FF91EF91BF91AF919F918F917F91C8
:100D80006F915F914F913F912F910F900FBE0F90F8
:100D90001F901895682F80E190E0C4D281E0809385
:100DA0000802FFCFCF92DF92EF92FF920F931F9333
:100DB000DF93CF93CDB7DEB728970FB6F894DEBF99
:100DC0000FBECDBFD82EC62E60E048DFCC2079F014
:100DD00080FF0DC082E0D81629F480E190E064E045
:100DE000A1D2FFCF80E190E065E09CD2FFCFBC01B3
:100DF000769567957695679575FF06C0CB019F7DC3
:100E000066277727681B790B80E090E0BDDC20E047
:100E100030E040E85EE3C6DA7B018C01CC20F9F0DB
:100E200081E0D816E1F4CE01059660E070E044E080
:100E300050E057D2CE01019664E070E044E050E00B
:100E400050D2C801B7012D813E814F815885AADA61
:100E500029813A814B815C817EDA7B018C01B7016B
:100E6000C80128960FB6F894DEBF0FBECDBFCF9154
:100E7000DF911F910F91FF90EF90DF90CF90089539
:100E80001F920F920FB60F921124EF92FF920F93C1
:100E90001F932F933F934F935F936F937F938F9302
:100EA0009F93AF93BF93EF93FF93349B19C082E05E
:100EB00061E078DF2091090230910A0240910B0233
:100EC00050910C021DDA7B018C0181E061E06ADF48
:100ED0009B01AC01C801B7012CDC8823DCF418C0ED
:100EE00082E061E05FDF20910D0230910E024091BF
:100EF0000F025091100204DA7B018C0181E061E065
:100F000051DF9B01AC01C801B701E8DB181614F4EE
:100F100080E186B9FF91EF91BF91AF919F918F9141
:100F20007F916F915F914F913F912F911F910F9101
:100F3000FF90EF900F900FBE0F901F9018951F928B
:100F40000F920FB60F9211242F933F934F935F93FD
:100F50006F937F938F939F93AF93BF93EF93FF9381
:100F600080E190E063E0DED181E080930802FFCF72
:100F7000DF92EF92FF920F931F93DF93CF93CDB742
:100F8000DEB7282FD62EEDB6FEB6462F50E08DB731
:100F90009EB7841B950B0FB6F8949EBF0FBE8DBFF6
:100FA0000DB71EB70F5F1F4FC801622F70E099D1B8
:100FB00090E00BC0F801E90FF11D80818093C6001D
:100FC0008091C00085FFFCCF9F5F9D1598F30FB601
:100FD000F894FEBE0FBEEDBECF91DF911F910F9131
:100FE000FF90EF90DF9008952F923F924F925F9283
:100FF0006F927F928F929F92AF92BF92CF92DF9229
:10100000EF92FF920F931F93DF93CF93CDB7DEB78D
:1010100028970FB6F894DEBF0FBECDBFF894A89501
:1010200088E1809360001092600082E060E0BADEA8
:101030001B012C0181E060E0B5DE3B014C0182E048
:1010400067E096DF8091C00087FFFCCF8091C000F1
:101050008F778093C00082E060E0A4DE7B018C018A
:1010600081E060E09FDE5B016C01C801B701A20175
:10107000910146D97B018C01C601B501A401930100
:101080003FD99B01AC01C801B70181DA9B01AC01DA
:1010900069837A838B839C83C401B301905882D97E
:1010A000A201910158D96D837E838F839887CE01E9
:1010B000059664E070E044E050E02BD18E010F5FB4
:1010C0001F4FC80160E070E044E050E022D1F80119
:1010D0009E012F5B3F4F80818093C6008091C000AE
:1010E00085FFFCCF3896E217F307A9F788E18093D4
:1010F000600089E680936000789428960FB6F89493
:10110000DEBF0FBECDBFCF91DF911F910F91FF903A
:10111000EF90DF90CF90BF90AF909F908F907F9097
:101120006F905F904F903F902F900895CF93DF93F3
:10113000F894A89588E1809360001092600082E0A6
:1011400067E016DFC0E0D0E08091C00087FFFCCFF1
:101150006091C600CE01E6D08091C0008F77809369
:10116000C0002196C131D10579F788E180936000F4
:1011700089E6809360007894DF91CF9108951F9263
:101180000F920FB60F9211242F933F934F935F93BB
:101190006F937F938F939F93AF93BF93EF93FF933F
:1011A0008091C600853651F0863618F4833681F476
:1011B0000CC08D3661F0823759F405C080E190E0B3
:1011C00060E0B0D005C06EDD03C00EDF01C0AEDF51
:1011D000FF91EF91BF91AF919F918F917F916F910F
:1011E0005F914F913F912F910F900FBE0F901F90E5
:1011F000189588E18093600089E68093600081EE15
:101200008093640081EC85B980E388B98FE08BB965
:101210008EE284B987EF8AB983E58CBD88E9809333
:10122000C1008EE08093C20083E38093C4008DE010
:101230008093810082E080936F0088EE9DEF909311
:1012400089008093880004B602FE04C080E190E02B
:1012500061E068D014BE80E190E053D081115D9AC6
:10126000789489E092E068E070E048E050E039D09E
:10127000A895FECF2F923F924F925F926F927F92EE
:101280008F929F92AF92BF92CF92DF92EF92FF9296
:101290000F931F93CF93DF93CDB7DEB7CA1BDB0B42
:1012A0000FB6F894DEBF0FBECDBF09942A883988E7
:1012B00048885F846E847D848C849B84AA84B984EE
:1012C000C884DF80EE80FD800C811B81AA81B981FA
:1012D000CE0FD11D0FB6F894DEBF0FBECDBFED010E
:1012E0000895DC01CB01FC01F999FECF06C0F2BDE7
:1012F000E1BDF89A319600B40D9241505040B8F7D4
:101300000895F999FECF92BD81BDF89A992780B5CD
:101310000895DC01CB0102C02D9105D04150504011
:10132000D8F70895262FF999FECF1FBA92BD81BD37
:1013300020BD0FB6F894FA9AF99A0FBE0196089557
:04134000F894FFCF4F
:101344000000000000000000000102020303030388
:101354000404040404040404050505050505050541
:101364000505050505050505060606060606060621
:101374000606060606060606060606060606060609
:1013840006060606060606060707070707070707F1
:1013940007070707070707070707070707070707D9
:1013A40007070707070707070707070707070707C9
:1013B40007070707070707070707070707070707B9
:1013C40007070707070707070808080808080808A1
:1013D4000808080808080808080808080808080889
:1013E4000808080808080808080808080808080879
:1013F4000808080808080808080808080808080869
:101404000808080808080808080808080808080858
:101414000808080808080808080808080808080848
:101424000808080808080808080808080808080838
:101434000808080808080808080808080808080828
:08144400080808080808080860
:00000001FF
